{
  "contractName": "VoteCount",
  "abi": [
    {
      "constant": false,
      "inputs": [],
      "name": "get1",
      "outputs": [
        {
          "internalType": "uint256",
          "name": "",
          "type": "uint256"
        }
      ],
      "payable": false,
      "stateMutability": "nonpayable",
      "type": "function"
    },
    {
      "constant": false,
      "inputs": [],
      "name": "get2",
      "outputs": [
        {
          "internalType": "uint256",
          "name": "",
          "type": "uint256"
        }
      ],
      "payable": false,
      "stateMutability": "nonpayable",
      "type": "function"
    },
    {
      "constant": false,
      "inputs": [],
      "name": "get3",
      "outputs": [
        {
          "internalType": "uint256",
          "name": "",
          "type": "uint256"
        }
      ],
      "payable": false,
      "stateMutability": "nonpayable",
      "type": "function"
    }
  ],
  "bytecode": "0x6080604052600080556000600155600060025534801561001e57600080fd5b5061010d8061002e6000396000f3fe6080604052348015600f57600080fd5b5060043610603c5760003560e01c8063054c1a751460415780638321045c14605d578063d2178b08146079575b600080fd5b60476095565b6040518082815260200191505060405180910390f35b606360ab565b6040518082815260200191505060405180910390f35b607f60c2565b6040518082815260200191505060405180910390f35b6000600160008082825401925050819055905090565b600060016002600082825401925050819055905090565b600060018060008282540192505081905590509056fea265627a7a72315820bdfd458a9c85d6eff41c7f4398a948121f3e5debc9e6728f249e89bc1ccfafac64736f6c63430005100032",
  "source": "// SPDX-License-Identifier: MIT\r\npragma solidity >=0.4.21 <8.10.0;\r\n\r\ncontract VoteCount {\r\n    uint candidate1 = 0;\r\n    uint candidate2 = 0;\r\n    uint candidate3 = 0;\r\n\r\n    function get1() public returns (uint) {\r\n        return candidate1 += 1;\r\n    }\r\n    function get2() public returns (uint) {\r\n        return candidate2 += 1;\r\n    }\r\n    function get3() public returns (uint) {\r\n        return candidate3 += 1;\r\n    }\r\n    \r\n}",
  "sourcePath": "D:\\VotingApp\\frontend\\contracts\\voteCount.sol",
  "compiler": {
    "name": "solc",
    "version": "0.5.16+commit.9c3226ce.Emscripten.clang"
  },
  "schemaVersion": "3.4.6",
  "updatedAt": "2022-04-21T16:49:23.742Z",
  "networkType": "ethereum",
  "devdoc": {
    "methods": {}
  },
  "userdoc": {
    "methods": {}
  }
}